{
  "_format": "hh-sol-artifact-1",
  "contractName": "SkillProof",
  "sourceName": "contracts/SkillProof.sol",
  "abi": [
    {
      "anonymous": false,
      "inputs": [
        {
          "indexed": true,
          "internalType": "address",
          "name": "user",
          "type": "address"
        },
        {
          "indexed": false,
          "internalType": "string",
          "name": "ipfsHash",
          "type": "string"
        }
      ],
      "name": "ProofStored",
      "type": "event"
    },
    {
      "inputs": [
        {
          "internalType": "address",
          "name": "user",
          "type": "address"
        }
      ],
      "name": "getProofs",
      "outputs": [
        {
          "internalType": "string[]",
          "name": "",
          "type": "string[]"
        }
      ],
      "stateMutability": "view",
      "type": "function"
    },
    {
      "inputs": [
        {
          "internalType": "string",
          "name": "ipfsHash",
          "type": "string"
        }
      ],
      "name": "storeProof",
      "outputs": [],
      "stateMutability": "nonpayable",
      "type": "function"
    },
    {
      "inputs": [
        {
          "internalType": "address",
          "name": "",
          "type": "address"
        },
        {
          "internalType": "uint256",
          "name": "",
          "type": "uint256"
        }
      ],
      "name": "userProofs",
      "outputs": [
        {
          "internalType": "string",
          "name": "",
          "type": "string"
        }
      ],
      "stateMutability": "view",
      "type": "function"
    },
    {
      "inputs": [
        {
          "internalType": "address",
          "name": "user",
          "type": "address"
        },
        {
          "internalType": "string",
          "name": "ipfsHash",
          "type": "string"
        }
      ],
      "name": "verifyProof",
      "outputs": [
        {
          "internalType": "bool",
          "name": "",
          "type": "bool"
        }
      ],
      "stateMutability": "view",
      "type": "function"
    }
  ],
  "bytecode": "0x608060405234801561001057600080fd5b50610e58806100206000396000f3fe608060405234801561001057600080fd5b506004361061004c5760003560e01c80631fb82d261461005157806325d153e11461006d57806331eeeb1a1461009d578063373b58e6146100cd575b600080fd5b61006b600480360381019061006691906106a0565b6100fd565b005b61008760048036038101906100829190610747565b6101bf565b60405161009491906107be565b60405180910390f35b6100b760048036038101906100b291906107d9565b610376565b6040516100c49190610947565b60405180910390f35b6100e760048036038101906100e2919061099f565b61048d565b6040516100f49190610a29565b60405180910390f35b6000803373ffffffffffffffffffffffffffffffffffffffff1673ffffffffffffffffffffffffffffffffffffffff1681526020019081526020016000208190806001815401808255809150506001900390600052602060002001600090919091909150908161016d9190610c57565b503373ffffffffffffffffffffffffffffffffffffffff167f03b6cc90ab4245168bdb4509d1d4c4e690f4dcbbe930eb31851d90c7b81739cb826040516101b49190610a29565b60405180910390a250565b6000806000808573ffffffffffffffffffffffffffffffffffffffff1673ffffffffffffffffffffffffffffffffffffffff168152602001908152602001600020805480602002602001604051908101604052809291908181526020016000905b828210156102cc57838290600052602060002001805461023f90610a7a565b80601f016020809104026020016040519081016040528092919081815260200182805461026b90610a7a565b80156102b85780601f1061028d576101008083540402835291602001916102b8565b820191906000526020600020905b81548152906001019060200180831161029b57829003601f168201915b505050505081526020019060010190610220565b50505050905060005b815181101561036957836040516020016102ef9190610d65565b6040516020818303038152906040528051906020012082828151811061031857610317610d7c565b5b60200260200101516040516020016103309190610d65565b604051602081830303815290604052805190602001200361035657600192505050610370565b808061036190610dda565b9150506102d5565b5060009150505b92915050565b60606000808373ffffffffffffffffffffffffffffffffffffffff1673ffffffffffffffffffffffffffffffffffffffff168152602001908152602001600020805480602002602001604051908101604052809291908181526020016000905b828210156104825783829060005260206000200180546103f590610a7a565b80601f016020809104026020016040519081016040528092919081815260200182805461042190610a7a565b801561046e5780601f106104435761010080835404028352916020019161046e565b820191906000526020600020905b81548152906001019060200180831161045157829003601f168201915b5050505050815260200190600101906103d6565b505050509050919050565b600060205281600052604060002081815481106104a957600080fd5b906000526020600020016000915091505080546104c590610a7a565b80601f01602080910402602001604051908101604052809291908181526020018280546104f190610a7a565b801561053e5780601f106105135761010080835404028352916020019161053e565b820191906000526020600020905b81548152906001019060200180831161052157829003601f168201915b505050505081565b6000604051905090565b600080fd5b600080fd5b600080fd5b600080fd5b6000601f19601f8301169050919050565b7f4e487b7100000000000000000000000000000000000000000000000000000000600052604160045260246000fd5b6105ad82610564565b810181811067ffffffffffffffff821117156105cc576105cb610575565b5b80604052505050565b60006105df610546565b90506105eb82826105a4565b919050565b600067ffffffffffffffff82111561060b5761060a610575565b5b61061482610564565b9050602081019050919050565b82818337600083830152505050565b600061064361063e846105f0565b6105d5565b90508281526020810184848401111561065f5761065e61055f565b5b61066a848285610621565b509392505050565b600082601f8301126106875761068661055a565b5b8135610697848260208601610630565b91505092915050565b6000602082840312156106b6576106b5610550565b5b600082013567ffffffffffffffff8111156106d4576106d3610555565b5b6106e084828501610672565b91505092915050565b600073ffffffffffffffffffffffffffffffffffffffff82169050919050565b6000610714826106e9565b9050919050565b61072481610709565b811461072f57600080fd5b50565b6000813590506107418161071b565b92915050565b6000806040838503121561075e5761075d610550565b5b600061076c85828601610732565b925050602083013567ffffffffffffffff81111561078d5761078c610555565b5b61079985828601610672565b9150509250929050565b60008115159050919050565b6107b8816107a3565b82525050565b60006020820190506107d360008301846107af565b92915050565b6000602082840312156107ef576107ee610550565b5b60006107fd84828501610732565b91505092915050565b600081519050919050565b600082825260208201905092915050565b6000819050602082019050919050565b600081519050919050565b600082825260208201905092915050565b60005b8381101561086c578082015181840152602081019050610851565b60008484015250505050565b600061088382610832565b61088d818561083d565b935061089d81856020860161084e565b6108a681610564565b840191505092915050565b60006108bd8383610878565b905092915050565b6000602082019050919050565b60006108dd82610806565b6108e78185610811565b9350836020820285016108f985610822565b8060005b85811015610935578484038952815161091685826108b1565b9450610921836108c5565b925060208a019950506001810190506108fd565b50829750879550505050505092915050565b6000602082019050818103600083015261096181846108d2565b905092915050565b6000819050919050565b61097c81610969565b811461098757600080fd5b50565b60008135905061099981610973565b92915050565b600080604083850312156109b6576109b5610550565b5b60006109c485828601610732565b92505060206109d58582860161098a565b9150509250929050565b600082825260208201905092915050565b60006109fb82610832565b610a0581856109df565b9350610a1581856020860161084e565b610a1e81610564565b840191505092915050565b60006020820190508181036000830152610a4381846109f0565b905092915050565b7f4e487b7100000000000000000000000000000000000000000000000000000000600052602260045260246000fd5b60006002820490506001821680610a9257607f821691505b602082108103610aa557610aa4610a4b565b5b50919050565b60008190508160005260206000209050919050565b60006020601f8301049050919050565b600082821b905092915050565b600060088302610b0d7fffffffffffffffffffffffffffffffffffffffffffffffffffffffffffffffff82610ad0565b610b178683610ad0565b95508019841693508086168417925050509392505050565b6000819050919050565b6000610b54610b4f610b4a84610969565b610b2f565b610969565b9050919050565b6000819050919050565b610b6e83610b39565b610b82610b7a82610b5b565b848454610add565b825550505050565b600090565b610b97610b8a565b610ba2818484610b65565b505050565b5b81811015610bc657610bbb600082610b8f565b600181019050610ba8565b5050565b601f821115610c0b57610bdc81610aab565b610be584610ac0565b81016020851015610bf4578190505b610c08610c0085610ac0565b830182610ba7565b50505b505050565b600082821c905092915050565b6000610c2e60001984600802610c10565b1980831691505092915050565b6000610c478383610c1d565b9150826002028217905092915050565b610c6082610832565b67ffffffffffffffff811115610c7957610c78610575565b5b610c838254610a7a565b610c8e828285610bca565b600060209050601f831160018114610cc15760008415610caf578287015190505b610cb98582610c3b565b865550610d21565b601f198416610ccf86610aab565b60005b82811015610cf757848901518255600182019150602085019450602081019050610cd2565b86831015610d145784890151610d10601f891682610c1d565b8355505b6001600288020188555050505b505050505050565b600081905092915050565b6000610d3f82610832565b610d498185610d29565b9350610d5981856020860161084e565b80840191505092915050565b6000610d718284610d34565b915081905092915050565b7f4e487b7100000000000000000000000000000000000000000000000000000000600052603260045260246000fd5b7f4e487b7100000000000000000000000000000000000000000000000000000000600052601160045260246000fd5b6000610de582610969565b91507fffffffffffffffffffffffffffffffffffffffffffffffffffffffffffffffff8203610e1757610e16610dab565b5b60018201905091905056fea26469706673582212207a87759448963bd556c6295d1047e1b7e692474ad40a7b884cf035feca4e61ae64736f6c63430008140033",
  "linkReferences": {},
  "deployedLinkReferences": {}
}