{
  "_format": "hh-sol-artifact-1",
  "contractName": "SkillProof",
  "sourceName": "contracts/SkillProof.sol",
  "abi": [
    {
      "inputs": [],
      "stateMutability": "nonpayable",
      "type": "constructor"
    },
    {
      "inputs": [],
      "name": "AccessControlBadConfirmation",
      "type": "error"
    },
    {
      "inputs": [
        {
          "internalType": "address",
          "name": "account",
          "type": "address"
        },
        {
          "internalType": "bytes32",
          "name": "neededRole",
          "type": "bytes32"
        }
      ],
      "name": "AccessControlUnauthorizedAccount",
      "type": "error"
    },
    {
      "inputs": [
        {
          "internalType": "address",
          "name": "target",
          "type": "address"
        }
      ],
      "name": "AddressEmptyCode",
      "type": "error"
    },
    {
      "inputs": [
        {
          "internalType": "address",
          "name": "caller",
          "type": "address"
        }
      ],
      "name": "CallerNotAdmin",
      "type": "error"
    },
    {
      "inputs": [
        {
          "internalType": "address",
          "name": "caller",
          "type": "address"
        }
      ],
      "name": "CallerNotInstitutionAdminOrAdmin",
      "type": "error"
    },
    {
      "inputs": [
        {
          "internalType": "address",
          "name": "caller",
          "type": "address"
        }
      ],
      "name": "CallerNotIssuer",
      "type": "error"
    },
    {
      "inputs": [
        {
          "internalType": "uint256",
          "name": "credentialId",
          "type": "uint256"
        }
      ],
      "name": "CredentialAlreadyRevoked",
      "type": "error"
    },
    {
      "inputs": [
        {
          "internalType": "uint256",
          "name": "credentialId",
          "type": "uint256"
        }
      ],
      "name": "CredentialNotFound",
      "type": "error"
    },
    {
      "inputs": [
        {
          "internalType": "bytes32",
          "name": "credentialHash",
          "type": "bytes32"
        }
      ],
      "name": "DuplicateCredentialHash",
      "type": "error"
    },
    {
      "inputs": [
        {
          "internalType": "address",
          "name": "implementation",
          "type": "address"
        }
      ],
      "name": "ERC1967InvalidImplementation",
      "type": "error"
    },
    {
      "inputs": [],
      "name": "ERC1967NonPayable",
      "type": "error"
    },
    {
      "inputs": [],
      "name": "EnforcedPause",
      "type": "error"
    },
    {
      "inputs": [],
      "name": "ExpectedPause",
      "type": "error"
    },
    {
      "inputs": [],
      "name": "FailedInnerCall",
      "type": "error"
    },
    {
      "inputs": [],
      "name": "InvalidInitialization",
      "type": "error"
    },
    {
      "inputs": [
        {
          "internalType": "address",
          "name": "issuer",
          "type": "address"
        }
      ],
      "name": "IssuerAlreadyApproved",
      "type": "error"
    },
    {
      "inputs": [
        {
          "internalType": "address",
          "name": "issuer",
          "type": "address"
        }
      ],
      "name": "IssuerNotApproved",
      "type": "error"
    },
    {
      "inputs": [],
      "name": "NotInitializing",
      "type": "error"
    },
    {
      "inputs": [],
      "name": "ReentrancyGuardReentrantCall",
      "type": "error"
    },
    {
      "inputs": [],
      "name": "UUPSUnauthorizedCallContext",
      "type": "error"
    },
    {
      "inputs": [
        {
          "internalType": "bytes32",
          "name": "slot",
          "type": "bytes32"
        }
      ],
      "name": "UUPSUnsupportedProxiableUUID",
      "type": "error"
    },
    {
      "inputs": [
        {
          "internalType": "address",
          "name": "caller",
          "type": "address"
        }
      ],
      "name": "UnauthorizedRevoker",
      "type": "error"
    },
    {
      "inputs": [],
      "name": "UseIssuerApprovalFlow",
      "type": "error"
    },
    {
      "inputs": [],
      "name": "ZeroAddressAccount",
      "type": "error"
    },
    {
      "inputs": [],
      "name": "ZeroAddressStudent",
      "type": "error"
    },
    {
      "inputs": [],
      "name": "ZeroCredentialHash",
      "type": "error"
    },
    {
      "anonymous": false,
      "inputs": [
        {
          "indexed": true,
          "internalType": "uint256",
          "name": "credentialId",
          "type": "uint256"
        },
        {
          "indexed": true,
          "internalType": "address",
          "name": "student",
          "type": "address"
        },
        {
          "indexed": true,
          "internalType": "address",
          "name": "issuer",
          "type": "address"
        },
        {
          "indexed": false,
          "internalType": "bytes32",
          "name": "credentialHash",
          "type": "bytes32"
        },
        {
          "indexed": false,
          "internalType": "uint64",
          "name": "issuedAt",
          "type": "uint64"
        }
      ],
      "name": "CredentialIssued",
      "type": "event"
    },
    {
      "anonymous": false,
      "inputs": [
        {
          "indexed": true,
          "internalType": "uint256",
          "name": "credentialId",
          "type": "uint256"
        },
        {
          "indexed": true,
          "internalType": "address",
          "name": "revokedBy",
          "type": "address"
        },
        {
          "indexed": false,
          "internalType": "bytes32",
          "name": "credentialHash",
          "type": "bytes32"
        },
        {
          "indexed": false,
          "internalType": "uint64",
          "name": "revokedAt",
          "type": "uint64"
        }
      ],
      "name": "CredentialRevoked",
      "type": "event"
    },
    {
      "anonymous": false,
      "inputs": [
        {
          "indexed": false,
          "internalType": "uint64",
          "name": "version",
          "type": "uint64"
        }
      ],
      "name": "Initialized",
      "type": "event"
    },
    {
      "anonymous": false,
      "inputs": [
        {
          "indexed": true,
          "internalType": "address",
          "name": "issuer",
          "type": "address"
        },
        {
          "indexed": true,
          "internalType": "address",
          "name": "approvedBy",
          "type": "address"
        }
      ],
      "name": "IssuerApproved",
      "type": "event"
    },
    {
      "anonymous": false,
      "inputs": [
        {
          "indexed": true,
          "internalType": "address",
          "name": "issuer",
          "type": "address"
        },
        {
          "indexed": true,
          "internalType": "address",
          "name": "removedBy",
          "type": "address"
        }
      ],
      "name": "IssuerRemoved",
      "type": "event"
    },
    {
      "anonymous": false,
      "inputs": [
        {
          "indexed": false,
          "internalType": "address",
          "name": "account",
          "type": "address"
        }
      ],
      "name": "Paused",
      "type": "event"
    },
    {
      "anonymous": false,
      "inputs": [
        {
          "indexed": true,
          "internalType": "bytes32",
          "name": "role",
          "type": "bytes32"
        },
        {
          "indexed": true,
          "internalType": "bytes32",
          "name": "previousAdminRole",
          "type": "bytes32"
        },
        {
          "indexed": true,
          "internalType": "bytes32",
          "name": "newAdminRole",
          "type": "bytes32"
        }
      ],
      "name": "RoleAdminChanged",
      "type": "event"
    },
    {
      "anonymous": false,
      "inputs": [
        {
          "indexed": true,
          "internalType": "bytes32",
          "name": "role",
          "type": "bytes32"
        },
        {
          "indexed": true,
          "internalType": "address",
          "name": "account",
          "type": "address"
        },
        {
          "indexed": true,
          "internalType": "address",
          "name": "sender",
          "type": "address"
        }
      ],
      "name": "RoleGranted",
      "type": "event"
    },
    {
      "anonymous": false,
      "inputs": [
        {
          "indexed": true,
          "internalType": "bytes32",
          "name": "role",
          "type": "bytes32"
        },
        {
          "indexed": true,
          "internalType": "address",
          "name": "account",
          "type": "address"
        },
        {
          "indexed": true,
          "internalType": "address",
          "name": "sender",
          "type": "address"
        }
      ],
      "name": "RoleRevoked",
      "type": "event"
    },
    {
      "anonymous": false,
      "inputs": [
        {
          "indexed": false,
          "internalType": "address",
          "name": "account",
          "type": "address"
        }
      ],
      "name": "Unpaused",
      "type": "event"
    },
    {
      "anonymous": false,
      "inputs": [
        {
          "indexed": true,
          "internalType": "address",
          "name": "implementation",
          "type": "address"
        }
      ],
      "name": "Upgraded",
      "type": "event"
    },
    {
      "inputs": [],
      "name": "DEFAULT_ADMIN_ROLE",
      "outputs": [
        {
          "internalType": "bytes32",
          "name": "",
          "type": "bytes32"
        }
      ],
      "stateMutability": "view",
      "type": "function"
    },
    {
      "inputs": [],
      "name": "INSTITUTION_ADMIN_ROLE",
      "outputs": [
        {
          "internalType": "bytes32",
          "name": "",
          "type": "bytes32"
        }
      ],
      "stateMutability": "view",
      "type": "function"
    },
    {
      "inputs": [],
      "name": "ISSUER_ROLE",
      "outputs": [
        {
          "internalType": "bytes32",
          "name": "",
          "type": "bytes32"
        }
      ],
      "stateMutability": "view",
      "type": "function"
    },
    {
      "inputs": [],
      "name": "UPGRADE_INTERFACE_VERSION",
      "outputs": [
        {
          "internalType": "string",
          "name": "",
          "type": "string"
        }
      ],
      "stateMutability": "view",
      "type": "function"
    },
    {
      "inputs": [
        {
          "internalType": "address",
          "name": "issuer",
          "type": "address"
        }
      ],
      "name": "approveIssuer",
      "outputs": [],
      "stateMutability": "nonpayable",
      "type": "function"
    },
    {
      "inputs": [
        {
          "internalType": "bytes32",
          "name": "credentialHash",
          "type": "bytes32"
        }
      ],
      "name": "credentialExists",
      "outputs": [
        {
          "internalType": "bool",
          "name": "exists",
          "type": "bool"
        }
      ],
      "stateMutability": "view",
      "type": "function"
    },
    {
      "inputs": [
        {
          "internalType": "uint256",
          "name": "credentialId",
          "type": "uint256"
        }
      ],
      "name": "credentialExistsById",
      "outputs": [
        {
          "internalType": "bool",
          "name": "exists",
          "type": "bool"
        }
      ],
      "stateMutability": "view",
      "type": "function"
    },
    {
      "inputs": [
        {
          "internalType": "uint256",
          "name": "credentialId",
          "type": "uint256"
        }
      ],
      "name": "getCredentialById",
      "outputs": [
        {
          "components": [
            {
              "internalType": "uint256",
              "name": "credentialId",
              "type": "uint256"
            },
            {
              "internalType": "bytes32",
              "name": "credentialHash",
              "type": "bytes32"
            },
            {
              "internalType": "address",
              "name": "student",
              "type": "address"
            },
            {
              "internalType": "address",
              "name": "issuer",
              "type": "address"
            },
            {
              "internalType": "uint64",
              "name": "issuedAt",
              "type": "uint64"
            },
            {
              "internalType": "bool",
              "name": "revoked",
              "type": "bool"
            }
          ],
          "internalType": "struct SkillProof.Credential",
          "name": "credential",
          "type": "tuple"
        }
      ],
      "stateMutability": "view",
      "type": "function"
    },
    {
      "inputs": [
        {
          "internalType": "address",
          "name": "student",
          "type": "address"
        }
      ],
      "name": "getCredentialCountByStudent",
      "outputs": [
        {
          "internalType": "uint256",
          "name": "count",
          "type": "uint256"
        }
      ],
      "stateMutability": "view",
      "type": "function"
    },
    {
      "inputs": [
        {
          "internalType": "bytes32",
          "name": "credentialHash",
          "type": "bytes32"
        }
      ],
      "name": "getCredentialIdByHash",
      "outputs": [
        {
          "internalType": "uint256",
          "name": "credentialId",
          "type": "uint256"
        }
      ],
      "stateMutability": "view",
      "type": "function"
    },
    {
      "inputs": [
        {
          "internalType": "address",
          "name": "student",
          "type": "address"
        }
      ],
      "name": "getCredentialsByStudent",
      "outputs": [
        {
          "internalType": "uint256[]",
          "name": "credentialIds",
          "type": "uint256[]"
        }
      ],
      "stateMutability": "view",
      "type": "function"
    },
    {
      "inputs": [
        {
          "internalType": "bytes32",
          "name": "role",
          "type": "bytes32"
        }
      ],
      "name": "getRoleAdmin",
      "outputs": [
        {
          "internalType": "bytes32",
          "name": "",
          "type": "bytes32"
        }
      ],
      "stateMutability": "view",
      "type": "function"
    },
    {
      "inputs": [
        {
          "internalType": "bytes32",
          "name": "role",
          "type": "bytes32"
        },
        {
          "internalType": "address",
          "name": "account",
          "type": "address"
        }
      ],
      "name": "grantRole",
      "outputs": [],
      "stateMutability": "nonpayable",
      "type": "function"
    },
    {
      "inputs": [
        {
          "internalType": "bytes32",
          "name": "role",
          "type": "bytes32"
        },
        {
          "internalType": "address",
          "name": "account",
          "type": "address"
        }
      ],
      "name": "hasRole",
      "outputs": [
        {
          "internalType": "bool",
          "name": "",
          "type": "bool"
        }
      ],
      "stateMutability": "view",
      "type": "function"
    },
    {
      "inputs": [
        {
          "internalType": "address",
          "name": "defaultAdmin",
          "type": "address"
        },
        {
          "internalType": "address",
          "name": "institutionAdmin",
          "type": "address"
        }
      ],
      "name": "initialize",
      "outputs": [],
      "stateMutability": "nonpayable",
      "type": "function"
    },
    {
      "inputs": [
        {
          "internalType": "address",
          "name": "account",
          "type": "address"
        }
      ],
      "name": "isDefaultAdmin",
      "outputs": [
        {
          "internalType": "bool",
          "name": "",
          "type": "bool"
        }
      ],
      "stateMutability": "view",
      "type": "function"
    },
    {
      "inputs": [
        {
          "internalType": "address",
          "name": "account",
          "type": "address"
        }
      ],
      "name": "isInstitutionAdmin",
      "outputs": [
        {
          "internalType": "bool",
          "name": "",
          "type": "bool"
        }
      ],
      "stateMutability": "view",
      "type": "function"
    },
    {
      "inputs": [
        {
          "internalType": "address",
          "name": "account",
          "type": "address"
        }
      ],
      "name": "isIssuer",
      "outputs": [
        {
          "internalType": "bool",
          "name": "",
          "type": "bool"
        }
      ],
      "stateMutability": "view",
      "type": "function"
    },
    {
      "inputs": [],
      "name": "isPaused",
      "outputs": [
        {
          "internalType": "bool",
          "name": "",
          "type": "bool"
        }
      ],
      "stateMutability": "view",
      "type": "function"
    },
    {
      "inputs": [
        {
          "internalType": "address",
          "name": "student",
          "type": "address"
        },
        {
          "internalType": "bytes32",
          "name": "credentialHash",
          "type": "bytes32"
        }
      ],
      "name": "issueCredential",
      "outputs": [
        {
          "internalType": "uint256",
          "name": "credentialId",
          "type": "uint256"
        }
      ],
      "stateMutability": "nonpayable",
      "type": "function"
    },
    {
      "inputs": [],
      "name": "nextCredentialId",
      "outputs": [
        {
          "internalType": "uint256",
          "name": "nextId",
          "type": "uint256"
        }
      ],
      "stateMutability": "view",
      "type": "function"
    },
    {
      "inputs": [],
      "name": "pauseIssuance",
      "outputs": [],
      "stateMutability": "nonpayable",
      "type": "function"
    },
    {
      "inputs": [],
      "name": "paused",
      "outputs": [
        {
          "internalType": "bool",
          "name": "",
          "type": "bool"
        }
      ],
      "stateMutability": "view",
      "type": "function"
    },
    {
      "inputs": [],
      "name": "proxiableUUID",
      "outputs": [
        {
          "internalType": "bytes32",
          "name": "",
          "type": "bytes32"
        }
      ],
      "stateMutability": "view",
      "type": "function"
    },
    {
      "inputs": [
        {
          "internalType": "address",
          "name": "issuer",
          "type": "address"
        }
      ],
      "name": "removeIssuer",
      "outputs": [],
      "stateMutability": "nonpayable",
      "type": "function"
    },
    {
      "inputs": [
        {
          "internalType": "bytes32",
          "name": "role",
          "type": "bytes32"
        },
        {
          "internalType": "address",
          "name": "callerConfirmation",
          "type": "address"
        }
      ],
      "name": "renounceRole",
      "outputs": [],
      "stateMutability": "nonpayable",
      "type": "function"
    },
    {
      "inputs": [
        {
          "internalType": "uint256",
          "name": "credentialId",
          "type": "uint256"
        }
      ],
      "name": "revokeCredential",
      "outputs": [],
      "stateMutability": "nonpayable",
      "type": "function"
    },
    {
      "inputs": [
        {
          "internalType": "bytes32",
          "name": "role",
          "type": "bytes32"
        },
        {
          "internalType": "address",
          "name": "account",
          "type": "address"
        }
      ],
      "name": "revokeRole",
      "outputs": [],
      "stateMutability": "nonpayable",
      "type": "function"
    },
    {
      "inputs": [
        {
          "internalType": "bytes4",
          "name": "interfaceId",
          "type": "bytes4"
        }
      ],
      "name": "supportsInterface",
      "outputs": [
        {
          "internalType": "bool",
          "name": "",
          "type": "bool"
        }
      ],
      "stateMutability": "view",
      "type": "function"
    },
    {
      "inputs": [],
      "name": "unpauseIssuance",
      "outputs": [],
      "stateMutability": "nonpayable",
      "type": "function"
    },
    {
      "inputs": [
        {
          "internalType": "address",
          "name": "newImplementation",
          "type": "address"
        },
        {
          "internalType": "bytes",
          "name": "data",
          "type": "bytes"
        }
      ],
      "name": "upgradeToAndCall",
      "outputs": [],
      "stateMutability": "payable",
      "type": "function"
    },
    {
      "inputs": [
        {
          "internalType": "bytes32",
          "name": "credentialHash",
          "type": "bytes32"
        }
      ],
      "name": "verifyCredential",
      "outputs": [
        {
          "internalType": "bool",
          "name": "isValid",
          "type": "bool"
        }
      ],
      "stateMutability": "view",
      "type": "function"
    }
  ],
  "bytecode": "0x60a06040523073ffffffffffffffffffffffffffffffffffffffff1660809073ffffffffffffffffffffffffffffffffffffffff168152503480156200004457600080fd5b50620000556200005b60201b60201c565b620001cf565b60006200006d6200016560201b60201c565b90508060000160089054906101000a900460ff1615620000b9576040517ff92ee8a900000000000000000000000000000000000000000000000000000000815260040160405180910390fd5b67ffffffffffffffff80168160000160009054906101000a900467ffffffffffffffff1667ffffffffffffffff1614620001625767ffffffffffffffff8160000160006101000a81548167ffffffffffffffff021916908367ffffffffffffffff1602179055507fc7f505b2f371ae2175ee4913f4499e1f2633a7b5936321eed1cdaeb6115181d267ffffffffffffffff604051620001599190620001b2565b60405180910390a15b50565b60007ff0c57e16840df040f15088dc2f81fe391c3923bec73e23a9662efc9c229c6a00905090565b600067ffffffffffffffff82169050919050565b620001ac816200018d565b82525050565b6000602082019050620001c96000830184620001a1565b92915050565b6080516133ed620001f9600039600081816120c80152818161211d015261233401526133ed6000f3fe6080604052600436106101e35760003560e01c80635c975abb11610102578063b187bd2611610095578063d547741f11610064578063d547741f14610757578063d735d7cd14610780578063df23cbb1146107bd578063fd8d0e72146107d4576101e3565b8063b187bd2614610675578063b21fc4c8146106a0578063b4e5a8de146106dd578063c974d9ed1461071a576101e3565b8063883802d3116100d1578063883802d3146105a557806391d14854146105e2578063a217fddf1461061f578063ad3cb1cc1461064a576101e3565b80635c975abb146104e957806382aefa241461051457806382deb86e1461053f578063877b9a6714610568576101e3565b806336568abe1161017a5780634dbf87cc116101495780634dbf87cc146104285780634f1ef2861461046557806352d1902d14610481578063592aad4a146104ac576101e3565b806336568abe146103705780633ef39e2a1461039957806347bc7093146103d6578063485cc955146103ff576101e3565b8063248a9ca3116101b6578063248a9ca3146102c85780632585a270146103055780632f2ff15d1461031c578063341f02ec14610345576101e3565b806301ffc9a7146101e857806315a44a92146102255780631b87278d14610262578063206d4e001461028b575b600080fd5b3480156101f457600080fd5b5061020f600480360381019061020a9190612b5b565b6107ff565b60405161021c9190612ba3565b60405180910390f35b34801561023157600080fd5b5061024c60048036038101906102479190612c1c565b610811565b6040516102599190612c62565b60405180910390f35b34801561026e57600080fd5b5061028960048036038101906102849190612ca9565b6108c2565b005b34801561029757600080fd5b506102b260048036038101906102ad9190612d0c565b610a25565b6040516102bf9190612c62565b60405180910390f35b3480156102d457600080fd5b506102ef60048036038101906102ea9190612d0c565b610a42565b6040516102fc9190612d48565b60405180910390f35b34801561031157600080fd5b5061031a610a70565b005b34801561032857600080fd5b50610343600480360381019061033e9190612d63565b610ad5565b005b34801561035157600080fd5b5061035a610b3c565b6040516103679190612c62565b60405180910390f35b34801561037c57600080fd5b5061039760048036038101906103929190612d63565b610b45565b005b3480156103a557600080fd5b506103c060048036038101906103bb9190612ca9565b610c15565b6040516103cd9190612e7d565b60405180910390f35b3480156103e257600080fd5b506103fd60048036038101906103f89190612c1c565b610d98565b005b34801561040b57600080fd5b5061042660048036038101906104219190612e98565b610ef2565b005b34801561043457600080fd5b5061044f600480360381019061044a9190612d0c565b611163565b60405161045c9190612ba3565b60405180910390f35b61047f600480360381019061047a919061301e565b6111f9565b005b34801561048d57600080fd5b50610496611218565b6040516104a39190612d48565b60405180910390f35b3480156104b857600080fd5b506104d360048036038101906104ce9190612c1c565b61124b565b6040516104e09190612ba3565b60405180910390f35b3480156104f557600080fd5b506104fe611261565b60405161050b9190612ba3565b60405180910390f35b34801561052057600080fd5b50610529611286565b6040516105369190612d48565b60405180910390f35b34801561054b57600080fd5b5061056660048036038101906105619190612c1c565b6112aa565b005b34801561057457600080fd5b5061058f600480360381019061058a9190612c1c565b611405565b60405161059c9190612ba3565b60405180910390f35b3480156105b157600080fd5b506105cc60048036038101906105c79190612ca9565b611438565b6040516105d99190612ba3565b60405180910390f35b3480156105ee57600080fd5b5061060960048036038101906106049190612d63565b61145b565b6040516106169190612ba3565b60405180910390f35b34801561062b57600080fd5b506106346114d4565b6040516106419190612d48565b60405180910390f35b34801561065657600080fd5b5061065f6114db565b60405161066c91906130f9565b60405180910390f35b34801561068157600080fd5b5061068a611514565b6040516106979190612ba3565b60405180910390f35b3480156106ac57600080fd5b506106c760048036038101906106c29190612c1c565b611523565b6040516106d49190612ba3565b60405180910390f35b3480156106e957600080fd5b5061070460048036038101906106ff919061311b565b611556565b6040516107119190612c62565b60405180910390f35b34801561072657600080fd5b50610741600480360381019061073c9190612d0c565b61184f565b60405161074e9190612ba3565b60405180910390f35b34801561076357600080fd5b5061077e60048036038101906107799190612d63565b611884565b005b34801561078c57600080fd5b506107a760048036038101906107a29190612c1c565b6118eb565b6040516107b4919061320a565b60405180910390f35b3480156107c957600080fd5b506107d26119e8565b005b3480156107e057600080fd5b506107e9611a4d565b6040516107f69190612d48565b60405180910390f35b600061080a82611a71565b9050919050565b60008073ffffffffffffffffffffffffffffffffffffffff168273ffffffffffffffffffffffffffffffffffffffff1603610878576040517f7421398500000000000000000000000000000000000000000000000000000000815260040160405180910390fd5b600360008373ffffffffffffffffffffffffffffffffffffffff1673ffffffffffffffffffffffffffffffffffffffff168152602001908152602001600020805490509050919050565b6108ca611aeb565b60006108d582611b42565b905080600301601c9054906101000a900460ff161561092b57816040517ff2d01fc00000000000000000000000000000000000000000000000000000000081526004016109229190612c62565b60405180910390fd5b6000610935611ba7565b9050610965818360030160009054906101000a900473ffffffffffffffffffffffffffffffffffffffff16611baf565b6109a657806040517f2e54b52800000000000000000000000000000000000000000000000000000000815260040161099d919061323b565b60405180910390fd5b600182600301601c6101000a81548160ff0219169083151502179055508073ffffffffffffffffffffffffffffffffffffffff16837f94615eb9e5a04d8325a107973f908f7d52ecd152ac84a174dcb75e0a3beeb81b846001015442604051610a10929190613265565b60405180910390a35050610a22611bf8565b50565b600060026000838152602001908152602001600020549050919050565b600080610a4d611c11565b905080600001600084815260200190815260200160002060010154915050919050565b6000610a7a611ba7565b9050610a896000801b8261145b565b610aca57806040517fe3fb72e9000000000000000000000000000000000000000000000000000000008152600401610ac1919061323b565b60405180910390fd5b610ad2611c39565b50565b7f114e74f6ea3bd819998f78687bfcb11b140da08e9b7d222fa9c1f1ba1f2aa1228203610b2e576040517fccadd68900000000000000000000000000000000000000000000000000000000815260040160405180910390fd5b610b388282611cab565b5050565b60008054905090565b60007f114e74f6ea3bd819998f78687bfcb11b140da08e9b7d222fa9c1f1ba1f2aa12283148015610b9c5750610b9b7f114e74f6ea3bd819998f78687bfcb11b140da08e9b7d222fa9c1f1ba1f2aa1228361145b565b5b9050610ba88383611ccd565b8015610c1057610bb6611ba7565b73ffffffffffffffffffffffffffffffffffffffff168273ffffffffffffffffffffffffffffffffffffffff167f8e3ebfd0cec02d186a926ba255288096c940460c4ce14f63974995c0d394b9b460405160405180910390a35b505050565b610c1d612a7e565b600160008381526020019081526020016000206040518060c001604052908160008201548152602001600182015481526020016002820160009054906101000a900473ffffffffffffffffffffffffffffffffffffffff1673ffffffffffffffffffffffffffffffffffffffff1673ffffffffffffffffffffffffffffffffffffffff1681526020016003820160009054906101000a900473ffffffffffffffffffffffffffffffffffffffff1673ffffffffffffffffffffffffffffffffffffffff1673ffffffffffffffffffffffffffffffffffffffff1681526020016003820160149054906101000a900467ffffffffffffffff1667ffffffffffffffff1667ffffffffffffffff16815260200160038201601c9054906101000a900460ff16151515158152505090506000816000015103610d9357816040517f9a1c8dc6000000000000000000000000000000000000000000000000000000008152600401610d8a9190612c62565b60405180910390fd5b919050565b6000610da2611ba7565b9050610dad81611d48565b610dee57806040517f65054fbd000000000000000000000000000000000000000000000000000000008152600401610de5919061323b565b60405180910390fd5b610df782611d8f565b610e217f114e74f6ea3bd819998f78687bfcb11b140da08e9b7d222fa9c1f1ba1f2aa1228361145b565b610e6257816040517f51dd9526000000000000000000000000000000000000000000000000000000008152600401610e59919061323b565b60405180910390fd5b610e8c7f114e74f6ea3bd819998f78687bfcb11b140da08e9b7d222fa9c1f1ba1f2aa12283611df8565b50610e95611ba7565b73ffffffffffffffffffffffffffffffffffffffff168273ffffffffffffffffffffffffffffffffffffffff167f8e3ebfd0cec02d186a926ba255288096c940460c4ce14f63974995c0d394b9b460405160405180910390a35050565b6000610efc611efa565b905060008160000160089054906101000a900460ff1615905060008260000160009054906101000a900467ffffffffffffffff1690506000808267ffffffffffffffff16148015610f4a5750825b9050600060018367ffffffffffffffff16148015610f7f575060003073ffffffffffffffffffffffffffffffffffffffff163b145b905081158015610f8d575080155b15610fc4576040517ff92ee8a900000000000000000000000000000000000000000000000000000000815260040160405180910390fd5b60018560000160006101000a81548167ffffffffffffffff021916908367ffffffffffffffff16021790555083156110145760018560000160086101000a81548160ff0219169083151502179055505b61101d87611d8f565b61102686611d8f565b61102e611f22565b611036611f2c565b61103e611f3e565b611046611f50565b6110536000801b88611f5a565b5061107e7f990193d772e35006e4af3d68abaee0e6fcc2a81756c86cd5f6aae56a27f3c12987611f5a565b506110ac7f990193d772e35006e4af3d68abaee0e6fcc2a81756c86cd5f6aae56a27f3c1296000801b61205b565b6110f67f114e74f6ea3bd819998f78687bfcb11b140da08e9b7d222fa9c1f1ba1f2aa1227f990193d772e35006e4af3d68abaee0e6fcc2a81756c86cd5f6aae56a27f3c12961205b565b6001600081905550831561115a5760008560000160086101000a81548160ff0219169083151502179055507fc7f505b2f371ae2175ee4913f4499e1f2633a7b5936321eed1cdaeb6115181d2600160405161115191906132d3565b60405180910390a15b50505050505050565b60008060001b82036111a1576040517fb0e8ec2a00000000000000000000000000000000000000000000000000000000815260040160405180910390fd5b600060026000848152602001908152602001600020549050600081036111cb5760009150506111f4565b60016000828152602001908152602001600020600301601c9054906101000a900460ff16159150505b919050565b6112016120c6565b61120a826121ac565b6112148282612213565b5050565b6000611222612332565b7f360894a13ba1a3210667c828492db98dca3e2076cc3735a920a3ca505d382bbc60001b905090565b600061125a6000801b8361145b565b9050919050565b60008061126c6123b9565b90508060000160009054906101000a900460ff1691505090565b7f114e74f6ea3bd819998f78687bfcb11b140da08e9b7d222fa9c1f1ba1f2aa12281565b60006112b4611ba7565b90506112bf81611d48565b61130057806040517f65054fbd0000000000000000000000000000000000000000000000000000000081526004016112f7919061323b565b60405180910390fd5b61130982611d8f565b6113337f114e74f6ea3bd819998f78687bfcb11b140da08e9b7d222fa9c1f1ba1f2aa1228361145b565b1561137557816040517f1825f7e400000000000000000000000000000000000000000000000000000000815260040161136c919061323b565b60405180910390fd5b61139f7f114e74f6ea3bd819998f78687bfcb11b140da08e9b7d222fa9c1f1ba1f2aa12283611f5a565b506113a8611ba7565b73ffffffffffffffffffffffffffffffffffffffff168273ffffffffffffffffffffffffffffffffffffffff167fd80e7a270810a5eb6e4571bdaa8eedc87370660730ba43f9525ba1423444b48160405160405180910390a35050565b60006114317f114e74f6ea3bd819998f78687bfcb11b140da08e9b7d222fa9c1f1ba1f2aa1228361145b565b9050919050565b600080600160008481526020019081526020016000206000015414159050919050565b600080611466611c11565b905080600001600085815260200190815260200160002060000160008473ffffffffffffffffffffffffffffffffffffffff1673ffffffffffffffffffffffffffffffffffffffff16815260200190815260200160002060009054906101000a900460ff1691505092915050565b6000801b81565b6040518060400160405280600581526020017f352e302e3000000000000000000000000000000000000000000000000000000081525081565b600061151e611261565b905090565b600061154f7f990193d772e35006e4af3d68abaee0e6fcc2a81756c86cd5f6aae56a27f3c1298361145b565b9050919050565b600080611561611ba7565b905061158d7f114e74f6ea3bd819998f78687bfcb11b140da08e9b7d222fa9c1f1ba1f2aa1228261145b565b6115ce57806040517fec845bc70000000000000000000000000000000000000000000000000000000081526004016115c5919061323b565b60405180910390fd5b6115d66123e1565b6115de611aeb565b6115e88484612422565b600060026000858152602001908152602001600020541461164057826040517f9dfe5b410000000000000000000000000000000000000000000000000000000081526004016116379190612d48565b60405180910390fd5b6000549150600182016000819055506000429050600061165e611ba7565b90506000600160008681526020019081526020016000209050848160000181905550868160020160006101000a81548173ffffffffffffffffffffffffffffffffffffffff021916908373ffffffffffffffffffffffffffffffffffffffff160217905550818160030160006101000a81548173ffffffffffffffffffffffffffffffffffffffff021916908373ffffffffffffffffffffffffffffffffffffffff160217905550858160010181905550828160030160146101000a81548167ffffffffffffffff021916908367ffffffffffffffff160217905550600081600301601c6101000a81548160ff021916908315150217905550846002600088815260200190815260200160002081905550600360008873ffffffffffffffffffffffffffffffffffffffff1673ffffffffffffffffffffffffffffffffffffffff1681526020019081526020016000208590806001815401808255809150506001900390600052602060002001600090919091909150558173ffffffffffffffffffffffffffffffffffffffff168773ffffffffffffffffffffffffffffffffffffffff16867f0683a0bd3844a1adcd65015cfff1ff576e93bfb81bf5a7d7b3841b1b87a642908987604051611835929190613265565b60405180910390a4505050611848611bf8565b5092915050565b60008060001b8203611864576000905061187f565b60006002600084815260200190815260200160002054141590505b919050565b7f114e74f6ea3bd819998f78687bfcb11b140da08e9b7d222fa9c1f1ba1f2aa12282036118dd576040517fccadd68900000000000000000000000000000000000000000000000000000000815260040160405180910390fd5b6118e782826124c8565b5050565b6060600073ffffffffffffffffffffffffffffffffffffffff168273ffffffffffffffffffffffffffffffffffffffff1603611953576040517f7421398500000000000000000000000000000000000000000000000000000000815260040160405180910390fd5b600360008373ffffffffffffffffffffffffffffffffffffffff1673ffffffffffffffffffffffffffffffffffffffff1681526020019081526020016000208054806020026020016040519081016040528092919081815260200182805480156119dc57602002820191906000526020600020905b8154815260200190600101908083116119c8575b50505050509050919050565b60006119f2611ba7565b9050611a016000801b8261145b565b611a4257806040517fe3fb72e9000000000000000000000000000000000000000000000000000000008152600401611a39919061323b565b60405180910390fd5b611a4a6124ea565b50565b7f990193d772e35006e4af3d68abaee0e6fcc2a81756c86cd5f6aae56a27f3c12981565b60007f7965db0b000000000000000000000000000000000000000000000000000000007bffffffffffffffffffffffffffffffffffffffffffffffffffffffff1916827bffffffffffffffffffffffffffffffffffffffffffffffffffffffff19161480611ae45750611ae38261255c565b5b9050919050565b6000611af56125c6565b90506002816000015403611b35576040517f3ee5aeb500000000000000000000000000000000000000000000000000000000815260040160405180910390fd5b6002816000018190555050565b60006001600083815260200190815260200160002090506000816000015403611ba257816040517f9a1c8dc6000000000000000000000000000000000000000000000000000000008152600401611b999190612c62565b60405180910390fd5b919050565b600033905090565b60008173ffffffffffffffffffffffffffffffffffffffff168373ffffffffffffffffffffffffffffffffffffffff161480611bf05750611bef83611d48565b5b905092915050565b6000611c026125c6565b90506001816000018190555050565b60007f02dd7bc7dec4dceedda775e58dd541e08a116c6c53815c0bd028192f7b626800905090565b611c416125ee565b6000611c4b6123b9565b905060008160000160006101000a81548160ff0219169083151502179055507f5db9ee0a495bf2e6ff9c91a7834c1ba4fdd244a5e8aa4e537bd38aeae4b073aa611c93611ba7565b604051611ca0919061323b565b60405180910390a150565b611cb482610a42565b611cbd8161262e565b611cc78383611f5a565b50505050565b611cd5611ba7565b73ffffffffffffffffffffffffffffffffffffffff168173ffffffffffffffffffffffffffffffffffffffff1614611d39576040517f6697b23200000000000000000000000000000000000000000000000000000000815260040160405180910390fd5b611d438282611df8565b505050565b6000611d576000801b8361145b565b80611d885750611d877f990193d772e35006e4af3d68abaee0e6fcc2a81756c86cd5f6aae56a27f3c1298361145b565b5b9050919050565b600073ffffffffffffffffffffffffffffffffffffffff168173ffffffffffffffffffffffffffffffffffffffff1603611df5576040517f595fdd8900000000000000000000000000000000000000000000000000000000815260040160405180910390fd5b50565b600080611e03611c11565b9050611e0f848461145b565b15611eee57600081600001600086815260200190815260200160002060000160008573ffffffffffffffffffffffffffffffffffffffff1673ffffffffffffffffffffffffffffffffffffffff16815260200190815260200160002060006101000a81548160ff021916908315150217905550611e8a611ba7565b73ffffffffffffffffffffffffffffffffffffffff168373ffffffffffffffffffffffffffffffffffffffff16857ff6391f5c32d9c69d2a47ea670b442974b53935d1edc7fd64eb21e047a839171b60405160405180910390a46001915050611ef4565b60009150505b92915050565b60007ff0c57e16840df040f15088dc2f81fe391c3923bec73e23a9662efc9c229c6a00905090565b611f2a612642565b565b611f34612642565b611f3c612682565b565b611f46612642565b611f4e6126b6565b565b611f58612642565b565b600080611f65611c11565b9050611f71848461145b565b61204f57600181600001600086815260200190815260200160002060000160008573ffffffffffffffffffffffffffffffffffffffff1673ffffffffffffffffffffffffffffffffffffffff16815260200190815260200160002060006101000a81548160ff021916908315150217905550611feb611ba7565b73ffffffffffffffffffffffffffffffffffffffff168373ffffffffffffffffffffffffffffffffffffffff16857f2f8788117e7eff1d82e926ec794901d17c78024a50270940304540a733656f0d60405160405180910390a46001915050612055565b60009150505b92915050565b6000612065611c11565b9050600061207284610a42565b905082826000016000868152602001908152602001600020600101819055508281857fbd79b86ffe0ab8e8776151514217cd7cacd52c909f66475c3af44e129f0b00ff60405160405180910390a450505050565b7f000000000000000000000000000000000000000000000000000000000000000073ffffffffffffffffffffffffffffffffffffffff163073ffffffffffffffffffffffffffffffffffffffff16148061217357507f000000000000000000000000000000000000000000000000000000000000000073ffffffffffffffffffffffffffffffffffffffff1661215a6126d7565b73ffffffffffffffffffffffffffffffffffffffff1614155b156121aa576040517fe07c8dba00000000000000000000000000000000000000000000000000000000815260040160405180910390fd5b565b60006121b6611ba7565b90506121c56000801b8261145b565b61220657806040517fe3fb72e90000000000000000000000000000000000000000000000000000000081526004016121fd919061323b565b60405180910390fd5b61220f82611d8f565b5050565b8173ffffffffffffffffffffffffffffffffffffffff166352d1902d6040518163ffffffff1660e01b8152600401602060405180830381865afa92505050801561227b57506040513d601f19601f820116820180604052508101906122789190613303565b60015b6122bc57816040517f4c9c8ce30000000000000000000000000000000000000000000000000000000081526004016122b3919061323b565b60405180910390fd5b7f360894a13ba1a3210667c828492db98dca3e2076cc3735a920a3ca505d382bbc60001b811461232357806040517faa1d49a400000000000000000000000000000000000000000000000000000000815260040161231a9190612d48565b60405180910390fd5b61232d838361272e565b505050565b7f000000000000000000000000000000000000000000000000000000000000000073ffffffffffffffffffffffffffffffffffffffff163073ffffffffffffffffffffffffffffffffffffffff16146123b7576040517fe07c8dba00000000000000000000000000000000000000000000000000000000815260040160405180910390fd5b565b60007fcd5ed15c6e187e77e9aee88184c21f4f2182ab5827cb3b7e07fbedcd63f03300905090565b6123e9611261565b15612420576040517fd93c066500000000000000000000000000000000000000000000000000000000815260040160405180910390fd5b565b600073ffffffffffffffffffffffffffffffffffffffff168273ffffffffffffffffffffffffffffffffffffffff1603612488576040517f7421398500000000000000000000000000000000000000000000000000000000815260040160405180910390fd5b6000801b81036124c4576040517fb0e8ec2a00000000000000000000000000000000000000000000000000000000815260040160405180910390fd5b5050565b6124d182610a42565b6124da8161262e565b6124e48383611df8565b50505050565b6124f26123e1565b60006124fc6123b9565b905060018160000160006101000a81548160ff0219169083151502179055507f62e78cea01bee320cd4e420270b5ea74000d11b0c9f74754ebdbfc544b05a258612544611ba7565b604051612551919061323b565b60405180910390a150565b60007f01ffc9a7000000000000000000000000000000000000000000000000000000007bffffffffffffffffffffffffffffffffffffffffffffffffffffffff1916827bffffffffffffffffffffffffffffffffffffffffffffffffffffffff1916149050919050565b60007f9b779b17422d0df92223018b32b4d1fa46e071723d6817e2486d003becc55f00905090565b6125f6611261565b61262c576040517f8dfc202b00000000000000000000000000000000000000000000000000000000815260040160405180910390fd5b565b61263f8161263a611ba7565b6127a1565b50565b61264a6127f2565b612680576040517fd7e6bcf800000000000000000000000000000000000000000000000000000000815260040160405180910390fd5b565b61268a612642565b60006126946123b9565b905060008160000160006101000a81548160ff02191690831515021790555050565b6126be612642565b60006126c86125c6565b90506001816000018190555050565b60006127057f360894a13ba1a3210667c828492db98dca3e2076cc3735a920a3ca505d382bbc60001b612812565b60000160009054906101000a900473ffffffffffffffffffffffffffffffffffffffff16905090565b6127378261281c565b8173ffffffffffffffffffffffffffffffffffffffff167fbc7cd75a20ee27fd9adebab32041f755214dbc6bffa90cc0225b39da2e5c2d3b60405160405180910390a26000815111156127945761278e82826128e9565b5061279d565b61279c61296d565b5b5050565b6127ab828261145b565b6127ee5780826040517fe2517d3f0000000000000000000000000000000000000000000000000000000081526004016127e5929190613330565b60405180910390fd5b5050565b60006127fc611efa565b60000160089054906101000a900460ff16905090565b6000819050919050565b60008173ffffffffffffffffffffffffffffffffffffffff163b0361287857806040517f4c9c8ce300000000000000000000000000000000000000000000000000000000815260040161286f919061323b565b60405180910390fd5b806128a57f360894a13ba1a3210667c828492db98dca3e2076cc3735a920a3ca505d382bbc60001b612812565b60000160006101000a81548173ffffffffffffffffffffffffffffffffffffffff021916908373ffffffffffffffffffffffffffffffffffffffff16021790555050565b60606000808473ffffffffffffffffffffffffffffffffffffffff168460405161291391906133a0565b600060405180830381855af49150503d806000811461294e576040519150601f19603f3d011682016040523d82523d6000602084013e612953565b606091505b50915091506129638583836129aa565b9250505092915050565b60003411156129a8576040517fb398979f00000000000000000000000000000000000000000000000000000000815260040160405180910390fd5b565b6060826129bf576129ba82612a39565b612a31565b600082511480156129e7575060008473ffffffffffffffffffffffffffffffffffffffff163b145b15612a2957836040517f9996b315000000000000000000000000000000000000000000000000000000008152600401612a20919061323b565b60405180910390fd5b819050612a32565b5b9392505050565b600081511115612a4c5780518082602001fd5b6040517f1425ea4200000000000000000000000000000000000000000000000000000000815260040160405180910390fd5b6040518060c001604052806000815260200160008019168152602001600073ffffffffffffffffffffffffffffffffffffffff168152602001600073ffffffffffffffffffffffffffffffffffffffff168152602001600067ffffffffffffffff1681526020016000151581525090565b6000604051905090565b600080fd5b600080fd5b60007fffffffff0000000000000000000000000000000000000000000000000000000082169050919050565b612b3881612b03565b8114612b4357600080fd5b50565b600081359050612b5581612b2f565b92915050565b600060208284031215612b7157612b70612af9565b5b6000612b7f84828501612b46565b91505092915050565b60008115159050919050565b612b9d81612b88565b82525050565b6000602082019050612bb86000830184612b94565b92915050565b600073ffffffffffffffffffffffffffffffffffffffff82169050919050565b6000612be982612bbe565b9050919050565b612bf981612bde565b8114612c0457600080fd5b50565b600081359050612c1681612bf0565b92915050565b600060208284031215612c3257612c31612af9565b5b6000612c4084828501612c07565b91505092915050565b6000819050919050565b612c5c81612c49565b82525050565b6000602082019050612c776000830184612c53565b92915050565b612c8681612c49565b8114612c9157600080fd5b50565b600081359050612ca381612c7d565b92915050565b600060208284031215612cbf57612cbe612af9565b5b6000612ccd84828501612c94565b91505092915050565b6000819050919050565b612ce981612cd6565b8114612cf457600080fd5b50565b600081359050612d0681612ce0565b92915050565b600060208284031215612d2257612d21612af9565b5b6000612d3084828501612cf7565b91505092915050565b612d4281612cd6565b82525050565b6000602082019050612d5d6000830184612d39565b92915050565b60008060408385031215612d7a57612d79612af9565b5b6000612d8885828601612cf7565b9250506020612d9985828601612c07565b9150509250929050565b612dac81612c49565b82525050565b612dbb81612cd6565b82525050565b612dca81612bde565b82525050565b600067ffffffffffffffff82169050919050565b612ded81612dd0565b82525050565b612dfc81612b88565b82525050565b60c082016000820151612e186000850182612da3565b506020820151612e2b6020850182612db2565b506040820151612e3e6040850182612dc1565b506060820151612e516060850182612dc1565b506080820151612e646080850182612de4565b5060a0820151612e7760a0850182612df3565b50505050565b600060c082019050612e926000830184612e02565b92915050565b60008060408385031215612eaf57612eae612af9565b5b6000612ebd85828601612c07565b9250506020612ece85828601612c07565b9150509250929050565b600080fd5b600080fd5b6000601f19601f8301169050919050565b7f4e487b7100000000000000000000000000000000000000000000000000000000600052604160045260246000fd5b612f2b82612ee2565b810181811067ffffffffffffffff82111715612f4a57612f49612ef3565b5b80604052505050565b6000612f5d612aef565b9050612f698282612f22565b919050565b600067ffffffffffffffff821115612f8957612f88612ef3565b5b612f9282612ee2565b9050602081019050919050565b82818337600083830152505050565b6000612fc1612fbc84612f6e565b612f53565b905082815260208101848484011115612fdd57612fdc612edd565b5b612fe8848285612f9f565b509392505050565b600082601f83011261300557613004612ed8565b5b8135613015848260208601612fae565b91505092915050565b6000806040838503121561303557613034612af9565b5b600061304385828601612c07565b925050602083013567ffffffffffffffff81111561306457613063612afe565b5b61307085828601612ff0565b9150509250929050565b600081519050919050565b600082825260208201905092915050565b60005b838110156130b4578082015181840152602081019050613099565b60008484015250505050565b60006130cb8261307a565b6130d58185613085565b93506130e5818560208601613096565b6130ee81612ee2565b840191505092915050565b6000602082019050818103600083015261311381846130c0565b905092915050565b6000806040838503121561313257613131612af9565b5b600061314085828601612c07565b925050602061315185828601612cf7565b9150509250929050565b600081519050919050565b600082825260208201905092915050565b6000819050602082019050919050565b60006131938383612da3565b60208301905092915050565b6000602082019050919050565b60006131b78261315b565b6131c18185613166565b93506131cc83613177565b8060005b838110156131fd5781516131e48882613187565b97506131ef8361319f565b9250506001810190506131d0565b5085935050505092915050565b6000602082019050818103600083015261322481846131ac565b905092915050565b61323581612bde565b82525050565b6000602082019050613250600083018461322c565b92915050565b61325f81612dd0565b82525050565b600060408201905061327a6000830185612d39565b6132876020830184613256565b9392505050565b6000819050919050565b6000819050919050565b60006132bd6132b86132b38461328e565b613298565b612dd0565b9050919050565b6132cd816132a2565b82525050565b60006020820190506132e860008301846132c4565b92915050565b6000815190506132fd81612ce0565b92915050565b60006020828403121561331957613318612af9565b5b6000613327848285016132ee565b91505092915050565b6000604082019050613345600083018561322c565b6133526020830184612d39565b9392505050565b600081519050919050565b600081905092915050565b600061337a82613359565b6133848185613364565b9350613394818560208601613096565b80840191505092915050565b60006133ac828461336f565b91508190509291505056fea2646970667358221220f63857a809e187ad6a53e11fb1216f4822d25a57d76c551b886ba46a5eba179464736f6c63430008140033",
  "linkReferences": {},
  "deployedLinkReferences": {}
}